{
  "contractName": "Roulette",
  "abi": [
    {
      "constant": true,
      "inputs": [],
      "name": "contractStoreAmount",
      "outputs": [
        {
          "name": "",
          "type": "uint256"
        }
      ],
      "payable": false,
      "stateMutability": "view",
      "type": "function",
      "signature": "0x6fe6fc6d"
    },
    {
      "constant": false,
      "inputs": [],
      "name": "renounceOwnership",
      "outputs": [],
      "payable": false,
      "stateMutability": "nonpayable",
      "type": "function",
      "signature": "0x715018a6"
    },
    {
      "constant": true,
      "inputs": [],
      "name": "owner",
      "outputs": [
        {
          "name": "",
          "type": "address"
        }
      ],
      "payable": false,
      "stateMutability": "view",
      "type": "function",
      "signature": "0x8da5cb5b"
    },
    {
      "constant": true,
      "inputs": [],
      "name": "isOwner",
      "outputs": [
        {
          "name": "",
          "type": "bool"
        }
      ],
      "payable": false,
      "stateMutability": "view",
      "type": "function",
      "signature": "0x8f32d59b"
    },
    {
      "constant": false,
      "inputs": [
        {
          "name": "newOwner",
          "type": "address"
        }
      ],
      "name": "transferOwnership",
      "outputs": [],
      "payable": false,
      "stateMutability": "nonpayable",
      "type": "function",
      "signature": "0xf2fde38b"
    },
    {
      "inputs": [],
      "payable": true,
      "stateMutability": "payable",
      "type": "constructor",
      "signature": "constructor"
    },
    {
      "anonymous": false,
      "inputs": [
        {
          "indexed": false,
          "name": "result",
          "type": "uint8"
        },
        {
          "indexed": false,
          "name": "returnAmount",
          "type": "uint256"
        }
      ],
      "name": "JudgeResult",
      "type": "event",
      "signature": "0x2641f1f9c4305698a42ce3911a75998445aa50dc3b33fdf727672241230433f6"
    },
    {
      "anonymous": false,
      "inputs": [
        {
          "indexed": true,
          "name": "previousOwner",
          "type": "address"
        },
        {
          "indexed": true,
          "name": "newOwner",
          "type": "address"
        }
      ],
      "name": "OwnershipTransferred",
      "type": "event",
      "signature": "0x8be0079c531659141344cd1fd0a4f28419497f9722a3daafe3b4186f6b6457e0"
    },
    {
      "constant": false,
      "inputs": [],
      "name": "deposit",
      "outputs": [],
      "payable": true,
      "stateMutability": "payable",
      "type": "function",
      "signature": "0xd0e30db0"
    },
    {
      "constant": false,
      "inputs": [
        {
          "name": "_bet",
          "type": "uint8"
        }
      ],
      "name": "getResult",
      "outputs": [],
      "payable": true,
      "stateMutability": "payable",
      "type": "function",
      "signature": "0xb8267b4e"
    },
    {
      "constant": false,
      "inputs": [
        {
          "name": "_bet",
          "type": "uint8"
        },
        {
          "name": "_randNum",
          "type": "uint8"
        }
      ],
      "name": "judgeResult",
      "outputs": [],
      "payable": true,
      "stateMutability": "payable",
      "type": "function",
      "signature": "0xdaa2dda9"
    }
  ],
  "bytecode": "0x6080604052336000806101000a81548173ffffffffffffffffffffffffffffffffffffffff021916908373ffffffffffffffffffffffffffffffffffffffff1602179055506000809054906101000a900473ffffffffffffffffffffffffffffffffffffffff1673ffffffffffffffffffffffffffffffffffffffff16600073ffffffffffffffffffffffffffffffffffffffff167f8be0079c531659141344cd1fd0a4f28419497f9722a3daafe3b4186f6b6457e060405160405180910390a334600181905550610a6f806100d66000396000f3fe60806040526004361061008e576000357c0100000000000000000000000000000000000000000000000000000000900463ffffffff1680636fe6fc6d14610093578063715018a6146100be5780638da5cb5b146100d55780638f32d59b1461012c578063b8267b4e1461015b578063d0e30db01461018c578063daa2dda914610196578063f2fde38b146101d4575b600080fd5b34801561009f57600080fd5b506100a8610225565b6040518082815260200191505060405180910390f35b3480156100ca57600080fd5b506100d361022b565b005b3480156100e157600080fd5b506100ea6102fd565b604051808273ffffffffffffffffffffffffffffffffffffffff1673ffffffffffffffffffffffffffffffffffffffff16815260200191505060405180910390f35b34801561013857600080fd5b50610141610326565b604051808215151515815260200191505060405180910390f35b61018a6004803603602081101561017157600080fd5b81019080803560ff16906020019092919050505061037d565b005b610194610397565b005b6101d2600480360360408110156101ac57600080fd5b81019080803560ff169060200190929190803560ff1690602001909291905050506103c7565b005b3480156101e057600080fd5b50610223600480360360208110156101f757600080fd5b81019080803573ffffffffffffffffffffffffffffffffffffffff1690602001909291905050506108a1565b005b60015481565b610233610326565b151561023e57600080fd5b600073ffffffffffffffffffffffffffffffffffffffff166000809054906101000a900473ffffffffffffffffffffffffffffffffffffffff1673ffffffffffffffffffffffffffffffffffffffff167f8be0079c531659141344cd1fd0a4f28419497f9722a3daafe3b4186f6b6457e060405160405180910390a360008060006101000a81548173ffffffffffffffffffffffffffffffffffffffff021916908373ffffffffffffffffffffffffffffffffffffffff160217905550565b60008060009054906101000a900473ffffffffffffffffffffffffffffffffffffffff16905090565b60008060009054906101000a900473ffffffffffffffffffffffffffffffffffffffff1673ffffffffffffffffffffffffffffffffffffffff163373ffffffffffffffffffffffffffffffffffffffff1614905090565b60006103876108c0565b905061039382826103c7565b5050565b61039f610326565b15156103aa57600080fd5b6103bf346001546108fe90919063ffffffff16565b600181905550565b600034905060008083905060258560ff16111515610460578460ff168160ff16141561043f576024830291503373ffffffffffffffffffffffffffffffffffffffff166108fc839081150290604051600060405180830381858888f19350505050158015610439573d6000803e3d6000fd5b5061045b565b610454836001546108fe90919063ffffffff16565b6001819055505b610855565b602b8560ff161115156105e95760288560ff161115801561049f5750610496600c6001830360ff1661091f90919063ffffffff16565b6026860360ff16145b80156104af575060018160ff1610155b80156104bf575060248160ff1611155b15610516576003830291503373ffffffffffffffffffffffffffffffffffffffff166108fc839081150290604051600060405180830381858888f19350505050158015610510573d6000803e3d6000fd5b506105e4565b60298560ff1610158015610550575060038160ff1681151561053457fe5b0660ff1660036001870160ff1681151561054a57fe5b0660ff16145b8015610560575060018160ff1610155b8015610570575060248160ff1611155b156105c7576003830291503373ffffffffffffffffffffffffffffffffffffffff166108fc839081150290604051600060405180830381858888f193505050501580156105c1573d6000803e3d6000fd5b506105e3565b6105dc836001546108fe90919063ffffffff16565b6001819055505b5b610854565b60008160ff1614806105fe575060258160ff16145b1561062357610618836001546108fe90919063ffffffff16565b600181905550610853565b602d8560ff1614806106385750602f8560ff16145b80156106565750600060028260ff1681151561065057fe5b0660ff16145b156106ad576002830291503373ffffffffffffffffffffffffffffffffffffffff166108fc839081150290604051600060405180830381858888f193505050501580156106a7573d6000803e3d6000fd5b50610852565b602c8560ff1614806106c25750602e8560ff16145b80156106e05750600160028260ff168115156106da57fe5b0660ff16145b15610737576002830291503373ffffffffffffffffffffffffffffffffffffffff166108fc839081150290604051600060405180830381858888f19350505050158015610731573d6000803e3d6000fd5b50610851565b60308560ff1614801561074e575060018160ff1610155b801561075e575060128160ff1611155b156107b5576002830291503373ffffffffffffffffffffffffffffffffffffffff166108fc839081150290604051600060405180830381858888f193505050501580156107af573d6000803e3d6000fd5b50610850565b60318560ff161480156107cc575060138160ff1610155b80156107dc575060248160ff1611155b15610833576002830291503373ffffffffffffffffffffffffffffffffffffffff166108fc839081150290604051600060405180830381858888f1935050505015801561082d573d6000803e3d6000fd5b5061084f565b610848836001546108fe90919063ffffffff16565b6001819055505b5b5b5b5b5b5b7f2641f1f9c4305698a42ce3911a75998445aa50dc3b33fdf727672241230433f68183604051808360ff1660ff1681526020018281526020019250505060405180910390a15050505050565b6108a9610326565b15156108b457600080fd5b6108bd81610949565b50565b60006026426040516020018082815260200191505060405160208183030381529060405280519060200120600190048115156108f857fe5b06905090565b600080828401905083811015151561091557600080fd5b8091505092915050565b6000808211151561092f57600080fd5b6000828481151561093c57fe5b0490508091505092915050565b600073ffffffffffffffffffffffffffffffffffffffff168173ffffffffffffffffffffffffffffffffffffffff161415151561098557600080fd5b8073ffffffffffffffffffffffffffffffffffffffff166000809054906101000a900473ffffffffffffffffffffffffffffffffffffffff1673ffffffffffffffffffffffffffffffffffffffff167f8be0079c531659141344cd1fd0a4f28419497f9722a3daafe3b4186f6b6457e060405160405180910390a3806000806101000a81548173ffffffffffffffffffffffffffffffffffffffff021916908373ffffffffffffffffffffffffffffffffffffffff1602179055505056fea165627a7a723058205d4f6cd6374a05ee46d3a05697b0e1d6c31c432e17ca91d6d38db9b0d6f200590029",
  "source": "pragma solidity ^0.5.0;\n\nimport \"../node_modules/openzeppelin-solidity/contracts/ownership/Ownable.sol\";\nimport \"../node_modules/openzeppelin-solidity/contracts/math/SafeMath.sol\";\n\n/// @title A contract for playing roulette game\n/// @author akira-19\n/// @notice In this contract, you can bet ether and play roulette. If you win the game, you can get ether.\ncontract Roulette is Ownable{\n    using SafeMath for uint256;\n    using SafeMath for uint8;\n\n    uint public contractStoreAmount;\n\n\n    constructor() public payable {\n        contractStoreAmount = msg.value;\n    }\n\n\n    event JudgeResult(uint8 result, uint returnAmount);\n\n\n    function deposit() public payable onlyOwner(){\n        contractStoreAmount = contractStoreAmount.add(msg.value);\n    }\n\n    function getResult(uint8 _bet) public payable{\n        uint8 randNum = getRandomNum();\n        judgeResult(_bet, randNum);\n    }\n\n    function judgeResult(uint8 _bet, uint8 _randNum) public payable{\n        uint betAmount = msg.value;\n        uint returnAmount;\n        uint8 randNum = _randNum;\n        if(_bet <= 37){\n            /* 0 is 0, 00 is 37 */\n            if(randNum == _bet){\n                returnAmount =  betAmount*36;\n                msg.sender.transfer(returnAmount);\n            }else{\n                contractStoreAmount = contractStoreAmount.add(betAmount);\n            }\n        }else if(_bet <= 43){\n            /* 1-12:38, 13-24:39, 25-36:40 */\n            /* 1st row:41, 2nd row:42, 3rd row:43 */\n\n            if ((_bet <= 40) && ((_bet-38) == (randNum-1).div(12)) && (randNum >= 1) && (randNum <= 36)){\n                /* when bet is on dozens */\n                returnAmount = betAmount*3;\n                msg.sender.transfer(returnAmount);\n            }else if ((_bet >= 41) && (((_bet+1)%3) == (randNum%3)) && (randNum >= 1) && (randNum <= 36)){\n                /* when bet is on rows */\n                returnAmount = betAmount*3;\n                msg.sender.transfer(returnAmount);\n            }else{\n                contractStoreAmount = contractStoreAmount.add(betAmount);\n            }\n        }else{\n            /* odd:44 even:45, red:46 black:47, 1st half:48 2nd half:49 */\n            if(randNum == 0 || randNum == 37){\n                contractStoreAmount = contractStoreAmount.add(betAmount);\n            }else if((_bet == 45 || _bet == 47) && (randNum%2) == 0 ){\n                returnAmount = betAmount*2;\n                msg.sender.transfer(returnAmount);\n            }else if((_bet == 44 || _bet == 46) && (randNum%2) == 1 ){\n                returnAmount = betAmount*2;\n                msg.sender.transfer(returnAmount);\n            }else if((_bet == 48) && (randNum >= 1) && (randNum <= 18)){\n                returnAmount = betAmount*2;\n                msg.sender.transfer(returnAmount);\n            }else if((_bet == 49) && (randNum >= 19) && (randNum <= 36)){\n                returnAmount = betAmount*2;\n                msg.sender.transfer(returnAmount);\n            }else{\n                contractStoreAmount = contractStoreAmount.add(betAmount);\n            }\n\n        }\n\n        emit JudgeResult(randNum, returnAmount);\n    }\n\n    function getRandomNum() private view returns (uint8) {\n        return uint8(uint256(keccak256(abi.encode(block.timestamp)))%38);\n    }\n\n\n\n\n}\n",
  "sourcePath": "/Users/akira/ethereum/dapps/roulette/contracts/Roulette.sol",
  "compiler": {
    "name": "solc",
    "version": "0.5.0+commit.1d4f565a.Emscripten.clang"
  },
  "schemaVersion": "3.0.1",
  "updatedAt": "2019-03-08T04:17:34.709Z",
  "devdoc": {
    "author": "akira-19",
    "methods": {
      "isOwner()": {
        "return": "true if `msg.sender` is the owner of the contract."
      },
      "owner()": {
        "return": "the address of the owner."
      },
      "renounceOwnership()": {
        "details": "Allows the current owner to relinquish control of the contract."
      },
      "transferOwnership(address)": {
        "details": "Allows the current owner to transfer control of the contract to a newOwner.",
        "params": {
          "newOwner": "The address to transfer ownership to."
        }
      }
    },
    "title": "A contract for playing roulette game"
  },
  "userdoc": {
    "methods": {
      "renounceOwnership()": {
        "notice": "Renouncing to ownership will leave the contract without an owner. It will not be possible to call the functions with the `onlyOwner` modifier anymore."
      }
    },
    "notice": "In this contract, you can bet ether and play roulette. If you win the game, you can get ether."
  }
}