{
  "contractName": "Roulette",
  "abi": [
    {
      "constant": true,
      "inputs": [],
      "name": "contractStoreAmount",
      "outputs": [
        {
          "name": "",
          "type": "uint256"
        }
      ],
      "payable": false,
      "stateMutability": "view",
      "type": "function",
      "signature": "0x6fe6fc6d"
    },
    {
      "constant": false,
      "inputs": [],
      "name": "renounceOwnership",
      "outputs": [],
      "payable": false,
      "stateMutability": "nonpayable",
      "type": "function",
      "signature": "0x715018a6"
    },
    {
      "constant": true,
      "inputs": [],
      "name": "owner",
      "outputs": [
        {
          "name": "",
          "type": "address"
        }
      ],
      "payable": false,
      "stateMutability": "view",
      "type": "function",
      "signature": "0x8da5cb5b"
    },
    {
      "constant": true,
      "inputs": [],
      "name": "isOwner",
      "outputs": [
        {
          "name": "",
          "type": "bool"
        }
      ],
      "payable": false,
      "stateMutability": "view",
      "type": "function",
      "signature": "0x8f32d59b"
    },
    {
      "constant": false,
      "inputs": [
        {
          "name": "newOwner",
          "type": "address"
        }
      ],
      "name": "transferOwnership",
      "outputs": [],
      "payable": false,
      "stateMutability": "nonpayable",
      "type": "function",
      "signature": "0xf2fde38b"
    },
    {
      "inputs": [],
      "payable": true,
      "stateMutability": "payable",
      "type": "constructor",
      "signature": "constructor"
    },
    {
      "anonymous": false,
      "inputs": [
        {
          "indexed": false,
          "name": "result",
          "type": "uint8"
        },
        {
          "indexed": false,
          "name": "returnAmount",
          "type": "uint256"
        }
      ],
      "name": "JudgeResult",
      "type": "event",
      "signature": "0x2641f1f9c4305698a42ce3911a75998445aa50dc3b33fdf727672241230433f6"
    },
    {
      "anonymous": false,
      "inputs": [
        {
          "indexed": true,
          "name": "previousOwner",
          "type": "address"
        },
        {
          "indexed": true,
          "name": "newOwner",
          "type": "address"
        }
      ],
      "name": "OwnershipTransferred",
      "type": "event",
      "signature": "0x8be0079c531659141344cd1fd0a4f28419497f9722a3daafe3b4186f6b6457e0"
    },
    {
      "constant": false,
      "inputs": [],
      "name": "deposit",
      "outputs": [],
      "payable": true,
      "stateMutability": "payable",
      "type": "function",
      "signature": "0xd0e30db0"
    },
    {
      "constant": false,
      "inputs": [
        {
          "name": "_amount",
          "type": "uint256"
        }
      ],
      "name": "withdraw",
      "outputs": [],
      "payable": true,
      "stateMutability": "payable",
      "type": "function",
      "signature": "0x2e1a7d4d"
    },
    {
      "constant": false,
      "inputs": [
        {
          "name": "_bet",
          "type": "uint8"
        }
      ],
      "name": "getResult",
      "outputs": [],
      "payable": true,
      "stateMutability": "payable",
      "type": "function",
      "signature": "0xb8267b4e"
    }
  ],
  "bytecode": "0x6080604052336000806101000a81548173ffffffffffffffffffffffffffffffffffffffff021916908373ffffffffffffffffffffffffffffffffffffffff1602179055506000809054906101000a900473ffffffffffffffffffffffffffffffffffffffff1673ffffffffffffffffffffffffffffffffffffffff16600073ffffffffffffffffffffffffffffffffffffffff167f8be0079c531659141344cd1fd0a4f28419497f9722a3daafe3b4186f6b6457e060405160405180910390a334600181905550610acc806100d66000396000f3fe60806040526004361061008e576000357c0100000000000000000000000000000000000000000000000000000000900463ffffffff1680632e1a7d4d146100935780636fe6fc6d146100c1578063715018a6146100ec5780638da5cb5b146101035780638f32d59b1461015a578063b8267b4e14610189578063d0e30db0146101ba578063f2fde38b146101c4575b600080fd5b6100bf600480360360208110156100a957600080fd5b8101908080359060200190929190505050610215565b005b3480156100cd57600080fd5b506100d6610282565b6040518082815260200191505060405180910390f35b3480156100f857600080fd5b50610101610288565b005b34801561010f57600080fd5b5061011861035a565b604051808273ffffffffffffffffffffffffffffffffffffffff1673ffffffffffffffffffffffffffffffffffffffff16815260200191505060405180910390f35b34801561016657600080fd5b5061016f610383565b604051808215151515815260200191505060405180910390f35b6101b86004803603602081101561019f57600080fd5b81019080803560ff1690602001909291905050506103da565b005b6101c26103f4565b005b3480156101d057600080fd5b50610213600480360360208110156101e757600080fd5b81019080803573ffffffffffffffffffffffffffffffffffffffff169060200190929190505050610424565b005b61021d610383565b151561022857600080fd5b6001548110151561023857600080fd5b3373ffffffffffffffffffffffffffffffffffffffff166108fc829081150290604051600060405180830381858888f1935050505015801561027e573d6000803e3d6000fd5b5050565b60015481565b610290610383565b151561029b57600080fd5b600073ffffffffffffffffffffffffffffffffffffffff166000809054906101000a900473ffffffffffffffffffffffffffffffffffffffff1673ffffffffffffffffffffffffffffffffffffffff167f8be0079c531659141344cd1fd0a4f28419497f9722a3daafe3b4186f6b6457e060405160405180910390a360008060006101000a81548173ffffffffffffffffffffffffffffffffffffffff021916908373ffffffffffffffffffffffffffffffffffffffff160217905550565b60008060009054906101000a900473ffffffffffffffffffffffffffffffffffffffff16905090565b60008060009054906101000a900473ffffffffffffffffffffffffffffffffffffffff1673ffffffffffffffffffffffffffffffffffffffff163373ffffffffffffffffffffffffffffffffffffffff1614905090565b60006103e4610443565b90506103f08282610481565b5050565b6103fc610383565b151561040757600080fd5b61041c3460015461095b90919063ffffffff16565b600181905550565b61042c610383565b151561043757600080fd5b6104408161097c565b50565b600060264260405160200180828152602001915050604051602081830303815290604052805190602001206001900481151561047b57fe5b06905090565b600034905060008083905060258560ff1611151561051a578460ff168160ff1614156104f9576024830291503373ffffffffffffffffffffffffffffffffffffffff166108fc839081150290604051600060405180830381858888f193505050501580156104f3573d6000803e3d6000fd5b50610515565b61050e8360015461095b90919063ffffffff16565b6001819055505b61090f565b602b8560ff161115156106a35760288560ff16111580156105595750610550600c6001830360ff16610a7690919063ffffffff16565b6026860360ff16145b8015610569575060018160ff1610155b8015610579575060248160ff1611155b156105d0576003830291503373ffffffffffffffffffffffffffffffffffffffff166108fc839081150290604051600060405180830381858888f193505050501580156105ca573d6000803e3d6000fd5b5061069e565b60298560ff161015801561060a575060038160ff168115156105ee57fe5b0660ff1660036001870160ff1681151561060457fe5b0660ff16145b801561061a575060018160ff1610155b801561062a575060248160ff1611155b15610681576003830291503373ffffffffffffffffffffffffffffffffffffffff166108fc839081150290604051600060405180830381858888f1935050505015801561067b573d6000803e3d6000fd5b5061069d565b6106968360015461095b90919063ffffffff16565b6001819055505b5b61090e565b60008160ff1614806106b8575060258160ff16145b156106dd576106d28360015461095b90919063ffffffff16565b60018190555061090d565b602d8560ff1614806106f25750602f8560ff16145b80156107105750600060028260ff1681151561070a57fe5b0660ff16145b15610767576002830291503373ffffffffffffffffffffffffffffffffffffffff166108fc839081150290604051600060405180830381858888f19350505050158015610761573d6000803e3d6000fd5b5061090c565b602c8560ff16148061077c5750602e8560ff16145b801561079a5750600160028260ff1681151561079457fe5b0660ff16145b156107f1576002830291503373ffffffffffffffffffffffffffffffffffffffff166108fc839081150290604051600060405180830381858888f193505050501580156107eb573d6000803e3d6000fd5b5061090b565b60308560ff16148015610808575060018160ff1610155b8015610818575060128160ff1611155b1561086f576002830291503373ffffffffffffffffffffffffffffffffffffffff166108fc839081150290604051600060405180830381858888f19350505050158015610869573d6000803e3d6000fd5b5061090a565b60318560ff16148015610886575060138160ff1610155b8015610896575060248160ff1611155b156108ed576002830291503373ffffffffffffffffffffffffffffffffffffffff166108fc839081150290604051600060405180830381858888f193505050501580156108e7573d6000803e3d6000fd5b50610909565b6109028360015461095b90919063ffffffff16565b6001819055505b5b5b5b5b5b5b7f2641f1f9c4305698a42ce3911a75998445aa50dc3b33fdf727672241230433f68183604051808360ff1660ff1681526020018281526020019250505060405180910390a15050505050565b600080828401905083811015151561097257600080fd5b8091505092915050565b600073ffffffffffffffffffffffffffffffffffffffff168173ffffffffffffffffffffffffffffffffffffffff16141515156109b857600080fd5b8073ffffffffffffffffffffffffffffffffffffffff166000809054906101000a900473ffffffffffffffffffffffffffffffffffffffff1673ffffffffffffffffffffffffffffffffffffffff167f8be0079c531659141344cd1fd0a4f28419497f9722a3daafe3b4186f6b6457e060405160405180910390a3806000806101000a81548173ffffffffffffffffffffffffffffffffffffffff021916908373ffffffffffffffffffffffffffffffffffffffff16021790555050565b60008082111515610a8657600080fd5b60008284811515610a9357fe5b049050809150509291505056fea165627a7a72305820444ad67636acf0132f2f051aa66bde83b347f617e0cf2ed3652e3ab9604ce7470029",
  "source": "pragma solidity ^0.5.0;\n\nimport \"../node_modules/openzeppelin-solidity/contracts/ownership/Ownable.sol\";\nimport \"../node_modules/openzeppelin-solidity/contracts/math/SafeMath.sol\";\n\n/// @title A contract for playing roulette game\n/// @author akira-19\n/// @notice In this contract, you can bet ether and play roulette. If you win the game, you can get ether.\ncontract Roulette is Ownable{\n    using SafeMath for uint256;\n    using SafeMath for uint8;\n\n    uint public contractStoreAmount;\n\n\n    constructor() public payable {\n        contractStoreAmount = msg.value;\n    }\n\n\n    event JudgeResult(uint8 result, uint returnAmount);\n\n\n    function deposit() public payable onlyOwner(){\n        contractStoreAmount = contractStoreAmount.add(msg.value);\n    }\n\n    function withdraw(uint _amount) external payable onlyOwner() {\n        require(_amount < contractStoreAmount);\n        msg.sender.transfer(_amount);\n    }\n\n    function getResult(uint8 _bet) public payable{\n        uint8 randNum = getRandomNum();\n        judgeResult(_bet, randNum);\n    }\n\n    function judgeResult(uint8 _bet, uint8 _randNum) internal{\n        uint betAmount = msg.value;\n        uint returnAmount;\n        uint8 randNum = _randNum;\n        if(_bet <= 37){\n            /* 0 is 0, 00 is 37 */\n            if(randNum == _bet){\n                returnAmount =  betAmount*36;\n                msg.sender.transfer(returnAmount);\n            }else{\n                contractStoreAmount = contractStoreAmount.add(betAmount);\n            }\n        }else if(_bet <= 43){\n            /* 1-12:38, 13-24:39, 25-36:40 */\n            /* 1st row:41, 2nd row:42, 3rd row:43 */\n\n            if ((_bet <= 40) && ((_bet-38) == (randNum-1).div(12)) && (randNum >= 1) && (randNum <= 36)){\n                /* when bet is on dozens */\n                returnAmount = betAmount*3;\n                msg.sender.transfer(returnAmount);\n            }else if ((_bet >= 41) && (((_bet+1)%3) == (randNum%3)) && (randNum >= 1) && (randNum <= 36)){\n                /* when bet is on rows */\n                returnAmount = betAmount*3;\n                msg.sender.transfer(returnAmount);\n            }else{\n                contractStoreAmount = contractStoreAmount.add(betAmount);\n            }\n        }else{\n            /* odd:44 even:45, red:46 black:47, 1st half:48 2nd half:49 */\n            if(randNum == 0 || randNum == 37){\n                contractStoreAmount = contractStoreAmount.add(betAmount);\n            }else if((_bet == 45 || _bet == 47) && (randNum%2) == 0 ){\n                returnAmount = betAmount*2;\n                msg.sender.transfer(returnAmount);\n            }else if((_bet == 44 || _bet == 46) && (randNum%2) == 1 ){\n                returnAmount = betAmount*2;\n                msg.sender.transfer(returnAmount);\n            }else if((_bet == 48) && (randNum >= 1) && (randNum <= 18)){\n                returnAmount = betAmount*2;\n                msg.sender.transfer(returnAmount);\n            }else if((_bet == 49) && (randNum >= 19) && (randNum <= 36)){\n                returnAmount = betAmount*2;\n                msg.sender.transfer(returnAmount);\n            }else{\n                contractStoreAmount = contractStoreAmount.add(betAmount);\n            }\n\n        }\n\n        emit JudgeResult(randNum, returnAmount);\n    }\n\n    function getRandomNum() private view returns (uint8) {\n        return uint8(uint256(keccak256(abi.encode(block.timestamp)))%38);\n    }\n\n\n\n\n}\n",
  "sourcePath": "/Users/akira/ethereum/dapps/roulette/contracts/Roulette.sol",
  "compiler": {
    "name": "solc",
    "version": "0.5.0+commit.1d4f565a.Emscripten.clang"
  },
  "schemaVersion": "3.0.1",
  "updatedAt": "2019-03-09T19:21:41.728Z",
  "devdoc": {
    "author": "akira-19",
    "methods": {
      "isOwner()": {
        "return": "true if `msg.sender` is the owner of the contract."
      },
      "owner()": {
        "return": "the address of the owner."
      },
      "renounceOwnership()": {
        "details": "Allows the current owner to relinquish control of the contract."
      },
      "transferOwnership(address)": {
        "details": "Allows the current owner to transfer control of the contract to a newOwner.",
        "params": {
          "newOwner": "The address to transfer ownership to."
        }
      }
    },
    "title": "A contract for playing roulette game"
  },
  "userdoc": {
    "methods": {
      "renounceOwnership()": {
        "notice": "Renouncing to ownership will leave the contract without an owner. It will not be possible to call the functions with the `onlyOwner` modifier anymore."
      }
    },
    "notice": "In this contract, you can bet ether and play roulette. If you win the game, you can get ether."
  }
}